{
	"data": {
		"bytecode": {
			"linkReferences": {},
			"object": "608060405273b3971bcef2d791bc4027bbfedfb47319a4aaaaaa6000806101000a81548173ffffffffffffffffffffffffffffffffffffffff021916908373ffffffffffffffffffffffffffffffffffffffff16021790555034801561006457600080fd5b5061049b806100746000396000f3fe608060405234801561001057600080fd5b50600436106100365760003560e01c80631ff41d7d1461003b578063580d11ce14610045575b600080fd5b610043610063565b005b61004d610139565b60405161005a919061019e565b60405180910390f35b60008054906101000a900473ffffffffffffffffffffffffffffffffffffffff1673ffffffffffffffffffffffffffffffffffffffff1663ba3d69d773c9d7144d4bb4ff5936d1540faaeefd0201b5fdf873b05c8a4a1589f6809d1be61e81c0296a36652a266040516020016100d890610340565b6040516020818303038152906040526040518463ffffffff1660e01b815260040161010593929190610427565b600060405180830381600087803b15801561011f57600080fd5b505af1158015610133573d6000803e3d6000fd5b50505050565b60008054906101000a900473ffffffffffffffffffffffffffffffffffffffff1681565b600073ffffffffffffffffffffffffffffffffffffffff82169050919050565b60006101888261015d565b9050919050565b6101988161017d565b82525050565b60006020820190506101b3600083018461018f565b92915050565b600081905092915050565b7f3000000000000000000000000000000000000000000000000000000000000000600082015250565b60006101fa6001836101b9565b9150610205826101c4565b600182019050919050565b7f2b00000000000000000000000000000000000000000000000000000000000000600082015250565b60006102466001836101b9565b915061025182610210565b600182019050919050565b7f3300000000000000000000000000000000000000000000000000000000000000600082015250565b60006102926001836101b9565b915061029d8261025c565b600182019050919050565b7f5469746c65000000000000000000000000000000000000000000000000000000600082015250565b60006102de6005836101b9565b91506102e9826102a8565b600582019050919050565b7f426f647900000000000000000000000000000000000000000000000000000000600082015250565b600061032a6004836101b9565b9150610335826102f4565b600482019050919050565b600061034b826101ed565b915061035682610239565b915061036182610285565b915061036c82610239565b9150610377826102d1565b915061038282610239565b915061038d8261031d565b9150819050919050565b600081519050919050565b600082825260208201905092915050565b60005b838110156103d15780820151818401526020810190506103b6565b60008484015250505050565b6000601f19601f8301169050919050565b60006103f982610397565b61040381856103a2565b93506104138185602086016103b3565b61041c816103dd565b840191505092915050565b600060608201905061043c600083018661018f565b610449602083018561018f565b818103604083015261045b81846103ee565b905094935050505056fea26469706673582212205377d43ad2f57ad5a843a95c024fa3b330e34a134a59c736d4521c491f30e1d664736f6c63430008110033",
			"opcodes": "PUSH1 0x80 PUSH1 0x40 MSTORE PUSH20 0xB3971BCEF2D791BC4027BBFEDFB47319A4AAAAAA PUSH1 0x0 DUP1 PUSH2 0x100 EXP DUP2 SLOAD DUP2 PUSH20 0xFFFFFFFFFFFFFFFFFFFFFFFFFFFFFFFFFFFFFFFF MUL NOT AND SWAP1 DUP4 PUSH20 0xFFFFFFFFFFFFFFFFFFFFFFFFFFFFFFFFFFFFFFFF AND MUL OR SWAP1 SSTORE POP CALLVALUE DUP1 ISZERO PUSH2 0x64 JUMPI PUSH1 0x0 DUP1 REVERT JUMPDEST POP PUSH2 0x49B DUP1 PUSH2 0x74 PUSH1 0x0 CODECOPY PUSH1 0x0 RETURN INVALID PUSH1 0x80 PUSH1 0x40 MSTORE CALLVALUE DUP1 ISZERO PUSH2 0x10 JUMPI PUSH1 0x0 DUP1 REVERT JUMPDEST POP PUSH1 0x4 CALLDATASIZE LT PUSH2 0x36 JUMPI PUSH1 0x0 CALLDATALOAD PUSH1 0xE0 SHR DUP1 PUSH4 0x1FF41D7D EQ PUSH2 0x3B JUMPI DUP1 PUSH4 0x580D11CE EQ PUSH2 0x45 JUMPI JUMPDEST PUSH1 0x0 DUP1 REVERT JUMPDEST PUSH2 0x43 PUSH2 0x63 JUMP JUMPDEST STOP JUMPDEST PUSH2 0x4D PUSH2 0x139 JUMP JUMPDEST PUSH1 0x40 MLOAD PUSH2 0x5A SWAP2 SWAP1 PUSH2 0x19E JUMP JUMPDEST PUSH1 0x40 MLOAD DUP1 SWAP2 SUB SWAP1 RETURN JUMPDEST PUSH1 0x0 DUP1 SLOAD SWAP1 PUSH2 0x100 EXP SWAP1 DIV PUSH20 0xFFFFFFFFFFFFFFFFFFFFFFFFFFFFFFFFFFFFFFFF AND PUSH20 0xFFFFFFFFFFFFFFFFFFFFFFFFFFFFFFFFFFFFFFFF AND PUSH4 0xBA3D69D7 PUSH20 0xC9D7144D4BB4FF5936D1540FAAEEFD0201B5FDF8 PUSH20 0xB05C8A4A1589F6809D1BE61E81C0296A36652A26 PUSH1 0x40 MLOAD PUSH1 0x20 ADD PUSH2 0xD8 SWAP1 PUSH2 0x340 JUMP JUMPDEST PUSH1 0x40 MLOAD PUSH1 0x20 DUP2 DUP4 SUB SUB DUP2 MSTORE SWAP1 PUSH1 0x40 MSTORE PUSH1 0x40 MLOAD DUP5 PUSH4 0xFFFFFFFF AND PUSH1 0xE0 SHL DUP2 MSTORE PUSH1 0x4 ADD PUSH2 0x105 SWAP4 SWAP3 SWAP2 SWAP1 PUSH2 0x427 JUMP JUMPDEST PUSH1 0x0 PUSH1 0x40 MLOAD DUP1 DUP4 SUB DUP2 PUSH1 0x0 DUP8 DUP1 EXTCODESIZE ISZERO DUP1 ISZERO PUSH2 0x11F JUMPI PUSH1 0x0 DUP1 REVERT JUMPDEST POP GAS CALL ISZERO DUP1 ISZERO PUSH2 0x133 JUMPI RETURNDATASIZE PUSH1 0x0 DUP1 RETURNDATACOPY RETURNDATASIZE PUSH1 0x0 REVERT JUMPDEST POP POP POP POP JUMP JUMPDEST PUSH1 0x0 DUP1 SLOAD SWAP1 PUSH2 0x100 EXP SWAP1 DIV PUSH20 0xFFFFFFFFFFFFFFFFFFFFFFFFFFFFFFFFFFFFFFFF AND DUP2 JUMP JUMPDEST PUSH1 0x0 PUSH20 0xFFFFFFFFFFFFFFFFFFFFFFFFFFFFFFFFFFFFFFFF DUP3 AND SWAP1 POP SWAP2 SWAP1 POP JUMP JUMPDEST PUSH1 0x0 PUSH2 0x188 DUP3 PUSH2 0x15D JUMP JUMPDEST SWAP1 POP SWAP2 SWAP1 POP JUMP JUMPDEST PUSH2 0x198 DUP2 PUSH2 0x17D JUMP JUMPDEST DUP3 MSTORE POP POP JUMP JUMPDEST PUSH1 0x0 PUSH1 0x20 DUP3 ADD SWAP1 POP PUSH2 0x1B3 PUSH1 0x0 DUP4 ADD DUP5 PUSH2 0x18F JUMP JUMPDEST SWAP3 SWAP2 POP POP JUMP JUMPDEST PUSH1 0x0 DUP2 SWAP1 POP SWAP3 SWAP2 POP POP JUMP JUMPDEST PUSH32 0x3000000000000000000000000000000000000000000000000000000000000000 PUSH1 0x0 DUP3 ADD MSTORE POP JUMP JUMPDEST PUSH1 0x0 PUSH2 0x1FA PUSH1 0x1 DUP4 PUSH2 0x1B9 JUMP JUMPDEST SWAP2 POP PUSH2 0x205 DUP3 PUSH2 0x1C4 JUMP JUMPDEST PUSH1 0x1 DUP3 ADD SWAP1 POP SWAP2 SWAP1 POP JUMP JUMPDEST PUSH32 0x2B00000000000000000000000000000000000000000000000000000000000000 PUSH1 0x0 DUP3 ADD MSTORE POP JUMP JUMPDEST PUSH1 0x0 PUSH2 0x246 PUSH1 0x1 DUP4 PUSH2 0x1B9 JUMP JUMPDEST SWAP2 POP PUSH2 0x251 DUP3 PUSH2 0x210 JUMP JUMPDEST PUSH1 0x1 DUP3 ADD SWAP1 POP SWAP2 SWAP1 POP JUMP JUMPDEST PUSH32 0x3300000000000000000000000000000000000000000000000000000000000000 PUSH1 0x0 DUP3 ADD MSTORE POP JUMP JUMPDEST PUSH1 0x0 PUSH2 0x292 PUSH1 0x1 DUP4 PUSH2 0x1B9 JUMP JUMPDEST SWAP2 POP PUSH2 0x29D DUP3 PUSH2 0x25C JUMP JUMPDEST PUSH1 0x1 DUP3 ADD SWAP1 POP SWAP2 SWAP1 POP JUMP JUMPDEST PUSH32 0x5469746C65000000000000000000000000000000000000000000000000000000 PUSH1 0x0 DUP3 ADD MSTORE POP JUMP JUMPDEST PUSH1 0x0 PUSH2 0x2DE PUSH1 0x5 DUP4 PUSH2 0x1B9 JUMP JUMPDEST SWAP2 POP PUSH2 0x2E9 DUP3 PUSH2 0x2A8 JUMP JUMPDEST PUSH1 0x5 DUP3 ADD SWAP1 POP SWAP2 SWAP1 POP JUMP JUMPDEST PUSH32 0x426F647900000000000000000000000000000000000000000000000000000000 PUSH1 0x0 DUP3 ADD MSTORE POP JUMP JUMPDEST PUSH1 0x0 PUSH2 0x32A PUSH1 0x4 DUP4 PUSH2 0x1B9 JUMP JUMPDEST SWAP2 POP PUSH2 0x335 DUP3 PUSH2 0x2F4 JUMP JUMPDEST PUSH1 0x4 DUP3 ADD SWAP1 POP SWAP2 SWAP1 POP JUMP JUMPDEST PUSH1 0x0 PUSH2 0x34B DUP3 PUSH2 0x1ED JUMP JUMPDEST SWAP2 POP PUSH2 0x356 DUP3 PUSH2 0x239 JUMP JUMPDEST SWAP2 POP PUSH2 0x361 DUP3 PUSH2 0x285 JUMP JUMPDEST SWAP2 POP PUSH2 0x36C DUP3 PUSH2 0x239 JUMP JUMPDEST SWAP2 POP PUSH2 0x377 DUP3 PUSH2 0x2D1 JUMP JUMPDEST SWAP2 POP PUSH2 0x382 DUP3 PUSH2 0x239 JUMP JUMPDEST SWAP2 POP PUSH2 0x38D DUP3 PUSH2 0x31D JUMP JUMPDEST SWAP2 POP DUP2 SWAP1 POP SWAP2 SWAP1 POP JUMP JUMPDEST PUSH1 0x0 DUP2 MLOAD SWAP1 POP SWAP2 SWAP1 POP JUMP JUMPDEST PUSH1 0x0 DUP3 DUP3 MSTORE PUSH1 0x20 DUP3 ADD SWAP1 POP SWAP3 SWAP2 POP POP JUMP JUMPDEST PUSH1 0x0 JUMPDEST DUP4 DUP2 LT ISZERO PUSH2 0x3D1 JUMPI DUP1 DUP3 ADD MLOAD DUP2 DUP5 ADD MSTORE PUSH1 0x20 DUP2 ADD SWAP1 POP PUSH2 0x3B6 JUMP JUMPDEST PUSH1 0x0 DUP5 DUP5 ADD MSTORE POP POP POP POP JUMP JUMPDEST PUSH1 0x0 PUSH1 0x1F NOT PUSH1 0x1F DUP4 ADD AND SWAP1 POP SWAP2 SWAP1 POP JUMP JUMPDEST PUSH1 0x0 PUSH2 0x3F9 DUP3 PUSH2 0x397 JUMP JUMPDEST PUSH2 0x403 DUP2 DUP6 PUSH2 0x3A2 JUMP JUMPDEST SWAP4 POP PUSH2 0x413 DUP2 DUP6 PUSH1 0x20 DUP7 ADD PUSH2 0x3B3 JUMP JUMPDEST PUSH2 0x41C DUP2 PUSH2 0x3DD JUMP JUMPDEST DUP5 ADD SWAP2 POP POP SWAP3 SWAP2 POP POP JUMP JUMPDEST PUSH1 0x0 PUSH1 0x60 DUP3 ADD SWAP1 POP PUSH2 0x43C PUSH1 0x0 DUP4 ADD DUP7 PUSH2 0x18F JUMP JUMPDEST PUSH2 0x449 PUSH1 0x20 DUP4 ADD DUP6 PUSH2 0x18F JUMP JUMPDEST DUP2 DUP2 SUB PUSH1 0x40 DUP4 ADD MSTORE PUSH2 0x45B DUP2 DUP5 PUSH2 0x3EE JUMP JUMPDEST SWAP1 POP SWAP5 SWAP4 POP POP POP POP JUMP INVALID LOG2 PUSH5 0x6970667358 0x22 SLT KECCAK256 MSTORE8 PUSH24 0xD43AD2F57AD5A843A95C024FA3B330E34A134A59C736D452 SHR 0x49 0x1F ADDRESS 0xE1 0xD6 PUSH5 0x736F6C6343 STOP ADDMOD GT STOP CALLER "
		},
		"gasEstimates": {
			"creation": {
				"codeDepositCost": "235800",
				"executionCost": "24542",
				"totalCost": "260342"
			},
			"external": {
				"EPNS_COMM_CONTRACT_ADDRESS_FOR_SPECIFIC_BLOCKCHAIN()": "2511",
				"sendNotification()": "infinite"
			}
		},
		"methodIdentifiers": {
			"EPNS_COMM_CONTRACT_ADDRESS_FOR_SPECIFIC_BLOCKCHAIN()": "580d11ce",
			"sendNotification()": "1ff41d7d"
		}
	},
	"abi": [
		{
			"inputs": [],
			"name": "EPNS_COMM_CONTRACT_ADDRESS_FOR_SPECIFIC_BLOCKCHAIN",
			"outputs": [
				{
					"internalType": "address",
					"name": "",
					"type": "address"
				}
			],
			"stateMutability": "view",
			"type": "function"
		},
		{
			"inputs": [],
			"name": "sendNotification",
			"outputs": [],
			"stateMutability": "nonpayable",
			"type": "function"
		}
	]
}